:1000000022C046C045C044C043C06FC441C040C0C8
:100010003FC03EC03DC03CC03BC03AC039C00000FC
:10002000000037000000000036000000000038002B
:100030000202020202020102040810200103000071
:10004000040001070F0711241FBECFE5D2E0DEBF79
:10005000CDBF10E0A0E6B0E0E2ECF1E102C0059017
:100060000D92A43CB107D9F721E0A4ECB0E001C0A7
:100070001D92A431B207E1F710E0C2E2D0E003C064
:100080002197FE0160D7C132D107D1F7C0D48DC806
:10009000B7CFCF92DF92EF92FF929FB7F894C090C4
:1000A000C800D090C900E090CA00F090CB00309119
:1000B000C70022B788B7482F427081FF04C041E0D3
:1000C0002F3F09F440E09FBFC701B60157E0660F1C
:1000D000771F881F991F5A95D1F7630F711D811DD6
:1000E000911D6C197D098E099F09CC0CDD1CEE1C3D
:1000F000FF1C6C197D098E099F09F3E0660F771FBD
:10010000881F991FFA95D1F730E0F22FEE27B3E060
:10011000220F331FBA95E1F7DF01A21BB30B9D013C
:1001200056E0369527955A95E1F7620F731F811DAA
:10013000911D442321F060527C4F8F4F9F4FFF90C1
:10014000EF90DF90CF900895CF92DF92EF92FF92E1
:100150000F931F93CF93DF9300D000D000D01F9256
:10016000CDB7DEB78C0195DFD8011E96CD90DD901E
:10017000ED90FC9051976C157D058E059F0528F438
:10018000F80166877787808B918BD8011E96CD907A
:10019000DD90ED90FC9051976C197D098E099F09B7
:1001A0006C32714081059105F0F2F894F801838179
:1001B00094819A8389830084F185E02D7F012FEF5C
:1001C000E21AF20A80818B83D8015296ED91FC915C
:1001D0005397908154968C91982B9C839081809515
:1001E00089238D838D818E8388E08F835C816D81EF
:1001F0004B813F812E8189819A81D701508347FDB0
:10020000252F3A952083262F39F0441F00C0000087
:100210006083000000C0F2CF38E04D9160830000A1
:10022000019761F7D8015396FC93EE9352974B8355
:100230003F832E839A83898378942BDFF801668726
:100240007787808B918B27960FB6F894DEBF0FBE11
:10025000CDBFDF91CF911F910F91FF90EF90DF9075
:10026000CF9008958F929F92AF92BF92CF92DF92DC
:10027000EF92FF920F931F93CF93DF93FC01EB015B
:1002800089019A018181928168177907C0F5A901D6
:1002900066277727E42E812E922EA32EBB24F82CDE
:1002A000D02EC780CC2089F0AC2DB0E0842F90E018
:1002B000BD01D0D5E92E882D90E0BD01CBD5F92E1A
:1002C000802F90E0BD01C6D5D92E4585A085B1858A
:1002D0008285481321C0CE0163E070E0BBD5A80F32
:1002E000B91FC285CA0FDB2FD11DE882C385CA0F93
:1002F000DB2FD11DF8828485A80FB11DDC92DF9120
:10030000CF911F910F91FF90EF90DF90CF90BF9012
:10031000AF909F908F900895CC0FDD1FCC0FDD1F05
:10032000AC0FBD1F032F112722273327902FCC207E
:1003300021F08C2D90E0B8018DD5ED01C40FD11DB9
:100340009883CFCFCF93DF9381E08093600080913B
:10035000C4009091C5000196803191057CF5909381
:10036000C5008093C4008091C4009091C50097FFA0
:1003700006C08FE090E09093C5008093C400C091C8
:10038000C400D091C500C031D105E8F420E030E5CB
:100390004FEF50E0BE016C5E7F4F85EE90E062DF74
:1003A000209789F0BE016D5E7F4F20E038E240E883
:1003B00050E085EE90E0DF91CF9154CF1092C500D0
:1003C0001092C400D0CFDF91CF910895CF92DF92E9
:1003D000EF92FF92CF93DF9328EC30E0B9017DD507
:1003E000BC018436910518F0281B390BB90190E047
:1003F00080E026E730E040E050E03DD528EC30E0FA
:1004000040E050E07ED52B5F822F6AE04DD58F5FB4
:10041000C22ED12CF12CE12C7601DD24CC24D82A5B
:10042000CCE2D0E0A7019601BE0185EE90E01ADF94
:100430002197C0F7C3E2D0E020E430E040E050E094
:10044000BE0185EE90E00EDF2196CD32D105A1F7F9
:1004500081E08093FA00DF91CF91FF90EF90DF90E1
:10046000CF9008954F925F926F927F92AF92BF921A
:10047000CF92DF92EF92FF920F931F93CF93DF9370
:1004800000D000D000D0CDB7DEB79A8389838091A9
:10049000FF00909100016AE070E01FD5892B09F000
:1004A00055C1E981FA818181811106C08081811164
:1004B00001C081E080936100E981FA81FE83ED83D0
:1004C0008581C680D12CF12CE12CFE2CED2CDC2C6E
:1004D000CC24E82A8781C82A10E000E0A701960111
:1004E000B8018FEC90E0BEDE0F5F1F4F0A301105A0
:1004F000A9F791E09093E400AD81BE8111962C9113
:100500008091010130916100830F809301012223CA
:1005100009F476C018160CF469C01092010190938A
:10052000610080910101ED81FE819081992309F4A0
:1005300073C0F12CE12C082F880F110BCC24CA9426
:10054000D12C80916100082E000C990BB70182D448
:100550005801A81AB90AFAE0AF16B10408F0F3C0BE
:10056000C70161E87FEF76D4FC01E150FF4FAD8118
:10057000BE8112968C9190E0BF016CD4B601ADD4CF
:100580002B01712C612C320155244424AD81BE8194
:1005900013968C9190E0BF015DD4B6019ED49B016F
:1005A00050E040E0542F432F322F2227422A532A73
:1005B000642A752AAD81BE8114968C9190E0BF01AA
:1005C00049D4B6018AD49B0150E040E02429352962
:1005D00046295729B5018FEC90E044DEEA94EF28D4
:1005E00009F4B1C0EE24E394F12CABCF89300CF4C4
:1005F00098CF89E0809301018FEF8093610091CFC4
:1006000087FF04C089E0809301018BCF8A300CF40E
:1006100088CF1092010185CF65E052D4A92EB12C6C
:1006200044E0E42EE91AF12C0FEF10E0CC24CA9438
:10063000D12CEFEFAE16BE0609F485C0AD81BE81A8
:1006400012968C9190E0B80105D4B60146D42B01E6
:10065000712C612CD2019927882789839A83AB83D7
:10066000BC83AD81BE8113968C9190E0B801F2D32A
:10067000B60133D42B01712C612C762C652C542CB3
:10068000442489819A81AB81BC81482A592A6A2AEB
:100690007B2AAD81BE8114968C9190E0B801DAD3AB
:1006A000B6011BD49B0150E040E02429352946299E
:1006B0005729B7018FEC90E0D5DDED81FE81828175
:1006C00090E0B801C7D3B60108D42B01712C612C7E
:1006D000D2019927882789839A83AB83BC8383813E
:1006E00090E0B801B7D3B601F8D32B01712C612C7F
:1006F000762C652C542C442489819A81AB81BC8151
:10070000482A592A6A2A7B2A848190E0B801A2D318
:10071000B601E3D39B0150E040E024293529462966
:10072000572965E06A0D70E08FEC90E09BDD91E069
:10073000A91AB1080F571109AFEFEA1AFA0A0130E6
:10074000110509F076CF81E08093E40026960FB67C
:10075000F894DEBF0FBECDBFDF91CF911F910F91F7
:10076000FF90EF90DF90CF90BF90AF907F906F9011
:100770005F904F90089587FF09C08F7769F18130AE
:1007800069F1823069F1833069F18FEF90E0FC010B
:10079000E45CFF4F3491FC01EA5CFF4F2491FC01C3
:1007A000E05DFF4FE491EE23B1F0332329F03130C7
:1007B000D9F48AB58F778ABDF0E0EE0FFF1FE65DB2
:1007C000FF4FA591B4918FB7F8949C91E22FE095DB
:1007D000E923EC938FBF089585E0D8CF82E0D6CF90
:1007E00084E0D4CF83E0D2CF323019F48AB58F7D44
:1007F000E2CF333021F480B78F7D80BFDDCF34303E
:10080000D9F68CB58F7D8CBDD7CF90E0FC01EA5C2A
:10081000FF4F2491FC01E05DFF4FE491EE2371F066
:10082000F0E0EE0FFF1FEC5DFF4FA591B491EC914E
:10083000E22381E090E021F480E0089580E090E000
:100840000895CF93DF9387FF09C08F7779F18130C7
:1008500079F1823079F1833079F18FEF90E0FC010A
:10086000EA5CFF4F2491805D9F4FFC0184918823B7
:10087000D1F090E0880F991FFC01E25EFF4FA59137
:10088000B491FC01E65DFF4FC591D491611116C092
:100890009FB7F8948C91E22FE0958E238C9328815A
:1008A000E223E8839FBFDF91CF91089585E0D6CF03
:1008B00082E0D4CF84E0D2CF83E0D0CF8FB7F8945A
:1008C000EC91E22BEC938FBFEECFCF93DF93EC0153
:1008D0008D819E8197FD04C061E0B3DF8D814BDF88
:1008E00081E08883DF91CF9108951F920F920FB618
:1008F0000F9211244F935F936F937F938F939F93E6
:100900004091C8005091C9006091CA007091CB001D
:100910008091C7009091C6009F5F9093C6009F3161
:1009200008F48F5F9CE7980F9D3730F09FEF980F8A
:100930004F5F5F4F6F4F7F4F9093C7004093C8004A
:100940005093C9006093CA007093CB009F918F9120
:100950007F916F915F914F910F900FBE0F901F90FD
:100960001895CF92DF92EF92FF920F931F93CF9340
:10097000DF93EC016B01142F052F18821F821E8656
:100980001F86188A198A81E08D878A871B8682E0F4
:100990008C87CB0163E070E05DD27C019C838B830C
:1009A000D8D299878887009769F1A70170E060E045
:1009B000F5D3DA82C9821D830E838881882329F0CA
:1009C00061E0812F3EDF812FD6DE812F902FFC0149
:1009D000E05DFF4FE491F0E0EE0FFF1FE65DFF4F9B
:1009E000259134913B8B2A8BFC01EA5CFF4FE4910B
:1009F000EC8BDF91CF911F910F91FF90EF90DF90E3
:100A0000CF9008951C821B821A821982D4CF91B78D
:100A100081E2E1E0F0E0809357008491981306C0F2
:100A200001B607FE7CC081B7895F81BF83E08ABDC4
:100A300083BF789489B7826089BF80E48CBD8FEFD3
:100A40008DBD87EC80BF87E886B960E081E0F9DE84
:100A500060E082E0F6DE60E083E0F3DE85EE90E0C9
:100A600034DF8FEC90E031DF88248394EE24E3942C
:100A7000F12C64E0A62EB12C10920F0182E0C5DEAD
:100A8000D1E0892B09F4D0E083E0BFDEC1E0892BFF
:100A900009F4C0E081E0B9DE20910C0130910D0134
:100AA00040910E01D41721F030930B0120930A01DD
:100AB00040910A0150910B014217530711F0D09356
:100AC0000E0140910901C41721F0309308012093D1
:100AD000070140910701509108014217530711F097
:100AE000C0930901609106014091020150910301F8
:100AF000662301F160910401709105016115710592
:100B000089F43093050120930401892BB1F444301A
:100B10005105F1F0B0920301A092020119C081B712
:100B20008B5F83CFF901E61BF70BE639F10568F31C
:100B300010920601892B09F45CC14130510541F046
:100B4000F0920301E0920201109201018092610093
:100B50000091FF00109100010F5F1F4F10930001E3
:100B60000093FF002F5F3F4F30930D0120930C0146
:100B700090DAEB014AE0442E512C612C712C89DA79
:100B80006C1B7D0B683E734080F14114510461047D
:100B9000710419F5C0910201D09103018091FD000B
:100BA0009091FE00019709F077C0C230D10508F09E
:100BB00073C08091CC008F5F8230E8F48093CC00CA
:100BC000C230D10509F403C108F0F8C0209709F438
:100BD000CCC0219709F06DC0EBC0F1E04F1A51086D
:100BE00061087108C851DC4FCACF41145104610437
:100BF000710429F6CFCF1092CC0080E4C130D1052A
:100C000009F488EC90E0B0E0A0E03C0155244424D5
:100C10008AE0582A9090CE00E92D092C000CFF0B99
:100C2000EB56FF4F208038E6C32E30E0D32E10E085
:100C300000E0F60181916F013090CD0028120CC0C8
:100C40009201A301311004C020E030E040E050E008
:100C5000B80185EE90E006DB0F5F1F4F0D321105E6
:100C600041F78092FA0031100DC0F5E0F9153CF023
:100C700093949092CE00219709F077C099C080920A
:100C8000CD00F9CF9A949092CE0097FE99CF109212
:100C9000FE001092FD00EFCFC430D105F0F5C23058
:100CA000D10508F088C0209709F45CC0219709F4A9
:100CB00060C08091FD009091FE00892B71F48091BD
:100CC000FB009091FC000196843F21E0920708F020
:100CD00081C09093FC008093FB008091FA008823F0
:100CE00059F08091ED009091EE00892B19F085EE7E
:100CF00090E02ADA1092FA008091E400882309F447
:100D0000BBCE8091D7009091D800892B19F08FEC41
:100D100090E01ADA1092E400AFCE249751F6C801A1
:100D200062E370E0DAD080E060FF87E3982F969569
:100D30009695482E512C712C612C32015524442457
:100D4000592AD0E0C0E0A3019201BE0185EE90E0F7
:100D500089DA2196CD32D105B1F78092FA008CEB79
:100D600090E005C0C80132DBEDDA8CE990E07ADB77
:100D7000A0CFD0E0C0E020E035E048EC50E0BE017C
:100D800085EE90E06FDA2196C332D105A1F780920B
:100D9000FA00C3E2D0E020E035E04FEF50E0BE01C2
:100DA00085EE90E05FDA2196CD32D105A1F7CADA5F
:100DB00084EA90E0DCCFC80109DB02CF84EB90E04D
:100DC000C330D105A1F2249709F073CFC8CF8CEAC4
:100DD00090E0CDCF1092FC001092FB001092CE005C
:100DE0001092CD001092CC00F092FE00E092FD0037
:100DF00074CF452B09F4ACCE10920301109202017E
:100E0000A7CE50E040E06DE270E085EE90E0A9DD15
:100E100044E050E06AE070E08FEC90E0A2CD809179
:100E2000D7009091D80031D18091D4009091D50015
:100E300097FD02C060E005DD8091ED009091EE002D
:100E400024D18091EA009091EB0097FD02C060E010
:100E5000F8CC08950024552704C0080E591F880FA8
:100E6000991F009729F076956795B8F37105B9F742
:100E7000802D952F0895EE27FF27AA27BB2708C0AE
:100E8000A20FB31FE41FF51F220F331F441F551F6E
:100E9000969587957795679598F37040A9F7009791
:100EA00099F7BD01CF010895991B79E004C0991FFE
:100EB000961708F0961B881F7A95C9F780950895B4
:100EC00087FB082E062687FD819567FD6195ECDF7F
:100ED0000EF4919507FC81950895AA1BBB1B51E167
:100EE00007C0AA1FBB1FA617B70710F0A61BB70B9A
:100EF000881F991F5A95A9F780959095BC01CD013F
:100F00000895A1E21A2EAA1BBB1BFD010DC0AA1F4A
:100F1000BB1FEE1FFF1FA217B307E407F50720F062
:100F2000A21BB30BE40BF50B661F771F881F991FDD
:100F30001A9469F760957095809590959B01AC0126
:100F4000BD01CF010895EE0FFF1F0590F491E02D34
:100F500009940F931F93CF93DF938230910510F480
:100F600082E090E0E0911201F091130130E020E086
:100F7000B0E0A0E0309799F42115310509F44AC09A
:100F8000281B390B24303105D8F58A819B816115E6
:100F9000710589F1FB0193838283FE0111C04081B9
:100FA00051810281138148175907E0F0481759070A
:100FB00099F4109761F012960C93129713961C9364
:100FC0003296CF01DF91CF911F910F910895009339
:100FD000120110931301F4CF2115310551F042177E
:100FE000530738F0A901DB019A01BD01DF01F801C7
:100FF000C1CFEF01F9CF9093130180931201CDCFB0
:10100000FE01E20FF31F819391932250310939833E
:101010002883D7CF2091100130911101232B41F467
:1010200020916400309165003093110120931001EC
:1010300020916200309163002115310541F42DB7F4
:101040003EB74091660050916700241B350BE0913C
:101050001001F0911101E217F307A0F42E1B3F0BD2
:101060002817390778F0AC014E5F5F4F241735071A
:1010700048F04E0F5F1F5093110140931001819370
:1010800091939FCFF0E0E0E09CCFCF93DF93009768
:10109000E9F0FC01329713821282A0911201B09103
:1010A0001301ED0130E020E01097A1F4208131819F
:1010B000820F931F209110013091110128173907D9
:1010C00009F061C0F0931101E0931001DF91CF911D
:1010D0000895EA01CE17DF07E8F54A815B819E019A
:1010E00041155105B1F7E901FB83EA834991599113
:1010F000C40FD51FEC17FD0761F480819181029622
:10110000840F951FE90199838883828193819B8352
:101110008A83F0E0E0E012968D919C9113970097FE
:10112000B9F52D913C911197CD010296820F931F35
:1011300020911001309111012817390739F63097A5
:1011400051F51092130110921201B0931101A09366
:101150001001BCCFD383C28340815181840F951F7E
:10116000C817D90761F44E5F5F4F88819981480F96
:10117000591F518340838A819B81938382832115E8
:10118000310509F0B0CFF0931301E09312019ECF27
:10119000FD01DC01C0CF13821282D7CFDC0101C078
:1011A0006D9341505040E0F7089510E0C2E2D0E066
:1011B00003C0FE01C8DE2196C332D107D1F7F894EF
:0211C000FFCF5F
:1011C2000101000014018000000101FFFFFF010284
:1011D200020200FEFEFEFEFE000202030303020004
:1011E200FEFDFDFDFDFDFE0002030321211EDFDFEA
:1011F200DFDF1E212103020100FFFEFD0101FF0AC4
:101202000040403B0101FF5000000000FF00FF5082
:10121200000000000100FF50000000000000FF502D
:0412220000000000C8
:00000001FF
