:1000000022C046C045C044C043C02BC441C040C00C
:100010003FC03EC03DC03CC03BC03AC039C00000FC
:10002000000037000000000036000000000038002B
:100030000202020202020102040810200103000071
:100040000400BB06C90611241FBECFE5D2E0DEBF07
:10005000CDBF10E0A0E6B0E0E6E3F1E102C005901C
:100060000D92A43CB107D9F721E0A4ECB0E001C0A7
:100070001D92A231B207E1F710E0C2E2D0E003C066
:100080002197FE011AD7C132D107D1F77CD447C8D6
:10009000B7CFCF92DF92EF92FF929FB7F894C090C4
:1000A000C600D090C700E090C800F090C900309121
:1000B000C50022B788B7482F427081FF04C041E0D5
:1000C0002F3F09F440E09FBFC701B60157E0660F1C
:1000D000771F881F991F5A95D1F7630F711D811DD6
:1000E000911D6C197D098E099F09CC0CDD1CEE1C3D
:1000F000FF1C6C197D098E099F09F3E0660F771FBD
:10010000881F991FFA95D1F730E0F22FEE27B3E060
:10011000220F331FBA95E1F7DF01A21BB30B9D013C
:1001200056E0369527955A95E1F7620F731F811DAA
:10013000911D442321F060527C4F8F4F9F4FFF90C1
:10014000EF90DF90CF900895CF92DF92EF92FF92E1
:100150000F931F93CF93DF9300D000D000D01F9256
:10016000CDB7DEB78C0195DFD8011E96CD90DD901E
:10017000ED90FC9051976C157D058E059F0528F438
:10018000F80166877787808B918BD8011E96CD907A
:10019000DD90ED90FC9051976C197D098E099F09B7
:1001A0006C32714081059105F0F2F894F801838179
:1001B00094819A8389830084F185E02D7F012FEF5C
:1001C000E21AF20A80818B83D8015296ED91FC915C
:1001D0005397908154968C91982B9C839081809515
:1001E00089238D838D818E8388E08F835C816D81EF
:1001F0004B813F812E8189819A81D701508347FDB0
:10020000252F3A952083262F39F0441F00C0000087
:100210006083000000C0F2CF38E04D9160830000A1
:10022000019761F7D8015396FC93EE9352974B8355
:100230003F832E839A83898378942BDFF801668726
:100240007787808B918B27960FB6F894DEBF0FBE11
:10025000CDBFDF91CF911F910F91FF90EF90DF9075
:10026000CF9008958F929F92AF92BF92CF92DF92DC
:10027000EF92FF920F931F93CF93DF93FC01EB015B
:1002800089019A018181928168177907C0F5A901D6
:1002900066277727E42E812E922EA32EBB24F82CDE
:1002A000D02EC780CC2089F0AC2DB0E0842F90E018
:1002B000BD018AD5E92E882D90E0BD0185D5F92EA6
:1002C000802F90E0BD0180D5D92E4585A085B185D0
:1002D0008285481321C0CE0163E070E075D5A80F78
:1002E000B91FC285CA0FDB2FD11DE882C385CA0F93
:1002F000DB2FD11DF8828485A80FB11DDC92DF9120
:10030000CF911F910F91FF90EF90DF90CF90BF9012
:10031000AF909F908F900895CC0FDD1FCC0FDD1F05
:10032000AC0FBD1F032F112722273327902FCC207E
:1003300021F08C2D90E0B80147D5ED01C40FD11DFF
:100340009883CFCFCF92DF92EF92FF92CF93DF933C
:1003500028EC30E0B9017BD5BC018436910518F05A
:10036000281B390BB90190E080E026E730E040E03F
:1003700050E03BD528EC30E040E050E07CD52B5FEE
:10038000822F6AE04BD58F5FC22ED12CF12CE12C4D
:100390007601DD24CC24D82ACCE2D0E0A701960156
:1003A000BE0183EE90E05EDF2197C0F7C3E2D0E0AC
:1003B00020E430E040E050E0BE0183EE90E052DF08
:1003C0002196CD32D105A1F781E08093F800DF912D
:1003D000CF91FF90EF90DF90CF9008954F925F9272
:1003E0006F927F92AF92BF92CF92DF92EF92FF9285
:1003F0000F931F93CF93DF9300D000D000D0CDB7E1
:10040000DEB79A8389838091FD009091FE006AE0B7
:1004100070E01DD5892B09F055C1E981FA818181F0
:10042000811106C08081811101C081E0809360004C
:10043000E981FA81FE83ED838581C680D12CF12C80
:10044000E12CFE2CED2CDC2CCC24E82A8781C82A58
:1004500010E000E0A7019601B8018DEC90E002DF0A
:100460000F5F1F4F0A301105A9F791E09093E2004A
:10047000AD81BE8111962C918091FF00309160007A
:10048000830F8093FF00222309F476C018160CF422
:1004900069C01092FF00909360008091FF00ED8191
:1004A000FE819081992309F473C0F12CE12C082F6F
:1004B000880F110BCC24CA94D12C80916000082E97
:1004C000000C990BB70180D45801A81AB90AFAE0B8
:1004D000AF16B10408F0F3C0C70161E87FEF74D430
:1004E000FC01E150FF4FAD81BE8112968C9190E0EE
:1004F000BF016AD4B601ABD42B01712C612C32013F
:1005000055244424AD81BE8113968C9190E0BF01A7
:100510005BD4B6019CD49B0150E040E0542F432FA4
:10052000322F2227422A532A642A752AAD81BE819E
:1005300014968C9190E0BF0147D4B60188D49B01FA
:1005400050E040E02429352946295729B5018DEC92
:1005500090E088DEEA94EF2809F4B1C0EE24E39439
:10056000F12CABCF89300CF498CF89E08093FF0059
:100570008FEF8093600091CF87FF04C089E0809364
:10058000FF008BCF8A300CF488CF1092FF0085CF0C
:1005900065E050D4A92EB12C44E0E42EE91AF12CE8
:1005A0000FEF10E0CC24CA94D12CEFEFAE16BE06AC
:1005B00009F485C0AD81BE8112968C9190E0B8019E
:1005C00003D4B60144D42B01712C612CD20199279C
:1005D000882789839A83AB83BC83AD81BE811396C0
:1005E0008C9190E0B801F0D3B60131D42B01712C7D
:1005F000612C762C652C542C442489819A81AB8102
:10060000BC81482A592A6A2A7B2AAD81BE81149668
:100610008C9190E0B801D8D3B60119D49B0150E079
:1006200040E02429352946295729B7018DEC90E06F
:1006300019DEED81FE81828190E0B801C5D3B6015B
:1006400006D42B01712C612CD2019927882789832C
:100650009A83AB83BC83838190E0B801B5D3B601A4
:10066000F6D32B01712C612C762C652C542C442450
:1006700089819A81AB81BC81482A592A6A2A7B2ABE
:10068000848190E0B801A0D3B601E1D39B0150E092
:1006900040E0242935294629572965E06A0D70E094
:1006A0008DEC90E0DFDD91E0A91AB1080F57110938
:1006B000AFEFEA1AFA0A0130110509F076CF81E0AE
:1006C0008093E20026960FB6F894DEBF0FBECDBF32
:1006D000DF91CF911F910F91FF90EF90DF90CF901E
:1006E000BF90AF907F906F905F904F90089587FF7D
:1006F00009C08F7769F1813069F1823069F1833007
:1007000069F18FEF90E0FC01E45CFF4F3491FC0154
:10071000EA5CFF4F2491FC01E05DFF4FE491EE2382
:10072000B1F0332329F03130D9F48AB58F778ABDFF
:10073000F0E0EE0FFF1FE65DFF4FA591B4918FB77C
:10074000F8949C91E22FE095E923EC938FBF0895F4
:1007500085E0D8CF82E0D6CF84E0D4CF83E0D2CF7B
:10076000323019F48AB58F7DE2CF333021F480B76F
:100770008F7D80BFDDCF3430D9F68CB58F7D8CBDB9
:10078000D7CF90E0FC01EA5CFF4F2491FC01E05DD3
:10079000FF4FE491EE2371F0F0E0EE0FFF1FEC5DF0
:1007A000FF4FA591B491EC91E22381E090E021F418
:1007B00080E0089580E090E00895CF93DF9387FF75
:1007C00009C08F7779F1813079F1823079F1833006
:1007D00079F18FEF90E0FC01EA5CFF4F2491805D9E
:1007E0009F4FFC0184918823D1F090E0880F991FDE
:1007F000FC01E25EFF4FA591B491FC01E65DFF4F65
:10080000C591D491611116C09FB7F8948C91E22FD5
:10081000E0958E238C932881E223E8839FBFDF91AC
:10082000CF91089585E0D6CF82E0D4CF84E0D2CFB7
:1008300083E0D0CF8FB7F894EC91E22BEC938FBF8D
:10084000EECFCF93DF93EC018D819E8197FD04C0A5
:1008500061E0B3DF8D814BDF81E08883DF91CF9151
:1008600008951F920F920FB60F9211244F935F932A
:100870006F937F938F939F934091C6005091C700D1
:100880006091C8007091C9008091C5009091C4002A
:100890009F5F9093C4009F3108F48F5F9CE7980F8F
:1008A0009D3730F09FEF980F4F5F5F4F6F4F7F4F37
:1008B0009093C5004093C6005093C7006093C80052
:1008C0007093C9009F918F917F916F915F914F912C
:1008D0000F900FBE0F901F901895CF92DF92EF925E
:1008E000FF920F931F93CF93DF93EC016B01142FB3
:1008F000052F18821F821E861F86188A198A81E09A
:100900008D878A871B8682E08C87CB0163E070E04D
:100910005BD27C019C838B83D6D299878887009792
:1009200069F1A70170E060E0F3D3DA82C9821D8328
:100930000E838881882329F061E0812F3EDF812F9B
:10094000D6DE812F902FFC01E05DFF4FE491F0E0B7
:10095000EE0FFF1FE65DFF4F259134913B8B2A8BF5
:10096000FC01EA5CFF4FE491EC8BDF91CF911F918A
:100970000F91FF90EF90DF90CF9008951C821B8223
:100980001A821982D4CF91B781E2E1E0F0E080933E
:1009900057008491981306C001B607FE7CC081B74A
:1009A000895F81BF83E08ABD83BF789489B7826005
:1009B00089BF80E48CBD8FEF8DBD87EC80BF87E859
:1009C00086B960E081E0F9DE60E082E0F6DE60E0BA
:1009D00083E0F3DE83EE90E034DF8DEC90E031DFF6
:1009E00088248394EE24E394F12C64E0A62EB12CA9
:1009F00010920D0182E0C5DED1E0892B09F4D0E030
:100A000083E0BFDEC1E0892B09F4C0E081E0B9DEFC
:100A100020910A0130910B0140910C01D41721F073
:100A20003093090120930801409108015091090178
:100A30004217530711F0D0930C0140910701C417DE
:100A400021F030930601209305014091050150915A
:100A500006014217530711F0C0930701609104018A
:100A60004091000150910101662301F16091020162
:100A7000709103016115710589F43093030120938E
:100A80000201892BB1F444305105F1F0B09201011B
:100A9000A092000119C081B78B5F83CFF901E61BDB
:100AA000F70BE639F10568F310920401892B09F47C
:100AB0005AC14130510541F0F0920101E09200012C
:100AC0001092FF00809260000091FD001091FE00E6
:100AD0000F5F1F4F1093FE000093FD002F5F3F4FED
:100AE00030930B0120930A01D4DAEB014AE0442E43
:100AF000512C612C712CCDDA6C1B7D0B683E734040
:100B000080F1411451046104710419F5C091000190
:100B1000D09101018091FB009091FC00019709F0B8
:100B200077C0C230D10508F073C08091CA008F5FD2
:100B30008230E8F48093CA00C230D10509F401C1C3
:100B400008F0F6C0209709F4CBC0219709F06DC0DA
:100B5000E9C0F1E04F1A510861087108C851DC4F33
:100B6000CACF411451046104710429F6CFCF109209
:100B7000CA0080E4C130D10509F488EC90E0B0E00F
:100B8000A0E03C01552444248AE0582A9090CC00EF
:100B9000E92D092C000CFF0BEC56FF4F208037E6A7
:100BA000C32E30E0D32E10E000E0F60181916F01FA
:100BB0003090CB0028120CC09201A301311004C068
:100BC00020E030E040E050E0B80183EE90E04ADB06
:100BD0000F5F1F4F0D32110541F78092F800311061
:100BE0000DC0F5E0F9153CF093949092CC0021975C
:100BF00009F076C097C08092CB00F9CF9A9490927A
:100C0000CC0097FE99CF1092FC001092FB00EFCF22
:100C1000C430D105F0F5C230D10508F086C0209768
:100C200009F45CC0219709F45FC08091FB009091AA
:100C3000FC00892B71F48091F9009091FA000196E3
:100C4000843F21E0920708F07FC09093FA008093E0
:100C5000F9008091F800882359F08091EB00909181
:100C6000EC00892B19F083EE90E06EDA1092F80018
:100C70008091E200882309F4BBCE8091D500909149
:100C8000D600892B19F08DEC90E05EDA1092E2002C
:100C9000AFCE249751F6C80162E370E0D8D080E06F
:100CA00060FF87E3982F96959695482E512C712CCE
:100CB000612C320155244424592AD0E0C0E0A3011C
:100CC0009201BE0183EE90E0CDDA2196CD32D105BE
:100CD000B1F78092F8008BEB90E004C0C80132DBE2
:100CE0008BE990E07BDBA1CFD0E0C0E020E035E0F5
:100CF00048EC50E0BE0183EE90E0B4DA2196C332B6
:100D0000D105A1F78092F800C3E2D0E020E035E001
:100D10004FEF50E0BE0183EE90E0A4DA2196CD3291
:100D2000D105A1F783EA90E0DDCFC8010BDB04CF4A
:100D300083EB90E0C330D105A9F2249709F075CF79
:100D4000CACF8BEA90E0CECF1092FA001092F90051
:100D50001092CC001092CB001092CA00F092FC00CE
:100D6000E092FB0076CF452B09F4AECE1092010144
:100D700010920001A9CE50E040E06DE270E083EEF9
:100D800090E0ABDD44E050E06AE070E08DEC90E094
:100D9000A4CD8091D5009091D60031D18091D20020
:100DA0009091D30097FD02C060E007DD8091EB00D9
:100DB0009091EC0024D18091E8009091E90097FD9A
:100DC00002C060E0FACC08950024552704C0080E44
:100DD000591F880F991F009729F076956795B8F3EA
:100DE0007105B9F7802D952F0895EE27FF27AA27C3
:100DF000BB2708C0A20FB31FE41FF51F220F331F2C
:100E0000441F551F969587957795679598F3704081
:100E1000A9F7009799F7BD01CF010895991B79E0D3
:100E200004C0991F961708F0961B881F7A95C9F77A
:100E30008095089587FB082E062687FD819567FD1E
:100E40006195ECDF0EF4919507FC81950895AA1B3E
:100E5000BB1B51E107C0AA1FBB1FA617B70710F0A5
:100E6000A61BB70B881F991F5A95A9F780959095D7
:100E7000BC01CD010895A1E21A2EAA1BBB1BFD01E6
:100E80000DC0AA1FBB1FEE1FFF1FA217B307E40769
:100E9000F50720F0A21BB30BE40BF50B661F771FC1
:100EA000881F991F1A9469F76095709580959095A1
:100EB0009B01AC01BD01CF010895EE0FFF1F05900E
:100EC000F491E02D09940F931F93CF93DF93823019
:100ED000910510F482E090E0E0911001F091110191
:100EE00030E020E0B0E0A0E0309799F42115310522
:100EF00009F44AC0281B390B24303105D8F58A8102
:100F00009B816115710589F1FB0193838283FE0149
:100F100011C0408151810281138148175907E0F0C7
:100F20004817590799F4109761F012960C9312978D
:100F300013961C933296CF01DF91CF911F910F91A1
:100F400008950093100110931101F4CF211531057C
:100F500051F04217530738F0A901DB019A01BD0196
:100F6000DF01F801C1CFEF01F9CF90931101809318
:100F70001001CDCFFE01E20FF31F81939193225018
:100F8000310939832883D7CF20910E0130910F0189
:100F9000232B41F4209163003091640030930F01C2
:100FA00020930E01209161003091620021153105DE
:100FB00041F42DB73EB74091650050916600241B67
:100FC000350BE0910E01F0910F01E217F307A0F449
:100FD0002E1B3F0B2817390778F0AC014E5F5F4F8F
:100FE0002417350748F04E0F5F1F50930F014093B1
:100FF0000E01819391939FCFF0E0E0E09CCFCF93DF
:10100000DF930097E9F0FC01329713821282A091DE
:101010001001B0911101ED0130E020E01097A1F432
:1010200020813181820F931F20910E0130910F0199
:101030002817390709F061C0F0930F01E0930E0102
:10104000DF91CF910895EA01CE17DF07E8F54A81D5
:101050005B819E0141155105B1F7E901FB83EA83EC
:1010600049915991C40FD51FEC17FD0761F4808198
:1010700091810296840F951FE9019983888382816B
:1010800093819B838A83F0E0E0E012968D919C919E
:1010900013970097B9F52D913C911197CD010296C8
:1010A000820F931F20910E0130910F0128173907ED
:1010B00039F6309751F51092110110921001B0934A
:1010C0000F01A0930E01BCCFD383C2834081518115
:1010D000840F951FC817D90761F44E5F5F4F888151
:1010E0009981480F591F518340838A819B81938343
:1010F00082832115310509F0B0CFF0931101E093FF
:1011000010019ECFFD01DC01C0CF13821282D7CF28
:10111000DC0101C06D9341505040E0F7089510E0AC
:10112000C2E2D0E003C0FE01C8DE2196C332D1077F
:06113000D1F7F894FFCF97
:1011360001000012018000000101FFFFFF01020211
:101146000200FEFEFEFEFE0002020303030200FE94
:10115600FDFDFDFDFDFE0002030321211EDFDFDF95
:10116600DF1E212103020100FFFEFD0101FF0A002F
:1011760040403B0101FF5000000000FF00FF50000F
:101186000000000100FF50000000000000FF5000BA
:041196000000000055
:00000001FF
